:020000040002F8
:1060000040A80020A95C0300C37A02002B7B020099
:10601000337B0200677B0200678D020000000000F6
:106020000000000000000000000000002FAF020090
:106030004FB302000000000033E40200BB0C030079
:10604000FD550300870D0300F53C03001318030002
:10605000170F0300CB2F030037520300771A0300FA
:10606000773B03003D220300F33C0300633D030044
:106070007F3D0300C73F03005742030087420300F0
:10608000C3420300C7A902009D5A0300235B03001B
:10609000F3A902002F5B0300B9CC02007D5E030070
:1060A0007F5E0300815E0300835E0300855E030064
:1060B00089350300875E0300000000000000000037
:1060C000895E030095350300A13503008B5E030054
:1060D000135903008D5E03008F5E03000000000073
:1060E00000000000000000000000000000000000B0
:1060F00000000000000000000000000000000000A0
:10610000000000000000000000000000000000008F
:10611000000000000000000000000000000000007F
:10612000000000000000000000000000000000006F
:10613000000000000000000000000000000000005F
:10614000000000000000000000000000000000004F
:10615000000000000000000000000000000000003F
:10616000000000000000000000000000000000002F
:10617000000000000000000000000000000000001F
:10618000000000000000000000000000000000000F
:1061900000000000000000000000000000000000FF
:1061A00000000000000000000000000000000000EF
:1061B00000000000000000000000000000000000DF
:1061C00000000000000000000000000000000000CF
:1061D00000000000000000000000000000000000BF
:1061E00000000000000000000000000000000000AF
:1061F000000000000000000000000000000000009F
:1062000010F0030F01D1012000E00020C0B2704760
:1062100038B504000025042D0DD2DFF8880B50F8A6
:106220002500002805D02000DFF8781B51F8251044
:1062300088476D1CEFE731BD0278012A09D03BD3B6
:10624000032A14D008D3052A2AD020D3062A30D016
:1062500032E000220A702FE001220A7002898A814E
:106260008288CA81C2688A6000220A7424E00222FD
:106270000A7002898A818288CA81C2688A60827DA6
:10628000062A01D1012200E000220A7414E0032250
:106290000A70C2888A810289CA81C2688A600BE05A
:1062A00004220A70C2888A810022CA8100228A6080
:1062B00002E005220A70FFE77047884205D20068B5
:1062C00010F1010F01D0012000E00020C0B27047A2
:1062D000418800EB81000C30704738B504000D0098
:1062E0002000FFF7F5FF854201D202200AE0A088D6
:1062F0004FF6FF71884202D02088002801D101208A
:1063000000E0002032BD10B50400002C10D0DFF8F2
:10631000DC0BC06884420BD3DFF8D00B0069A042CD
:1063200006D32000FFF76CFF002801D0012000E019
:106330000020C0B210BD0100002904D00868DFF8B9
:10634000682A904201D003200BE04868DFF8A02BB8
:10635000801A03D0401E03D1012002E0002000E09B
:106360000320704701000022B2F5806F08D251F877
:10637000220010F1010F01D0002002E0521CF3E7CF
:106380000120704710B4DFF86C3B0400A4B2142263
:10639000544303EB040212895118DFF8583B040000
:1063A000A4B21422544303EB04025289511889B257
:1063B000B1F5806F01DA012000E00020C0B210BC0E
:1063C000704770B403000A200024220092B2022A0F
:1063D0001DDADFF8205B2600B6B21422564305EB27
:1063E000060252688A4210D2DFF8085B2600B6B275
:1063F0001422564305EB0602526812F58052914270
:1064000003D2002210001C8001E0641CDDE770BC98
:1064100070472DE9F8430D00140010F5805610F177
:10642000080702202880B84631004046FFF745FFA4
:1064300000282CD031004046FFF74FFF81464846E8
:10644000C0B200280CD1DFF87C0B0068D8F8081027
:10645000884211D2D8F80800DFF8681B08600BE00A
:10646000002C01D0012020704846C0B2022803D180
:106470004FF4806028800AE02888B8F80210C91C10
:10648000081828804046FFF723FF8046CCE7BDE888
:10649000F1838A7D032A04DB0289CB88DB1C9A18EE
:1064A00002814389CA889B1ADB1E4381704780B5ED
:1064B000002000900823DFF8102BDFF8100B016894
:1064C000DFF8280A01F0FFF802BD1CB50400002027
:1064D00000900823DFF8F82A2100DFF8100A01F005
:1064E000F2F816BD2DE9F04105000E000024EF1C66
:1064F000380080B240F2FE31884201DB092037E0EB
:106500005FF00008404680B202282BDADFF8E41979
:10651000424692B214204243885C00281FD13900C1
:1065200089B2404680B2FFF72DFF002817D0012026
:106530000400A6F80080DFF8BC19424692B214208D
:10654000424301EB020041897918DFF8A82943464C
:106550009BB21420434302EB0300418102E018F197
:106560000108CFE7E4B2002C01D0002000E00720B2
:10657000BDE8F08130B4DFF87C390C00A4B21422FD
:10658000544303EB040253891B1ADB1EDFF86449F2
:106590000D00ADB21422554304EB0502538130BC0B
:1065A000704780B50121DFF81C0A01F08BF902BDAC
:1065B0002DE9F04106000D00DFF83819320092B2E3
:1065C0001420424301EB0200406810F580572C680C
:1065D000002C04D02000FFF77BFE80460AE0DFF8A5
:1065E0001419320092B21420424301EB02004068B9
:1065F00010F1080839004046FFF75FFE002814D06C
:1066000039004046FFF769FE002803D002280AD06F
:1066100004D3EFE7C5F80080012007E04046FFF70C
:1066200057FE8046E6E7002000E00020BDE8F0814C
:1066300038B504000D006068FFF765FE002815D02E
:106640002089DFF81C1B098988420FD12068616806
:10665000896888420AD161682800FFF7B2FE0028E5
:1066600001D1012000E00020C0B21EE000202880FF
:106670002888022818DA0020009069462888FFF749
:1066800097FF00280CD00099886822689042F4D1C6
:1066900000986060DFF8C80A00892081012004E0CA
:1066A0002888401C2880E3E7002032BDF8B50400AC
:1066B0000D0016001F00DFF8AC0A0078002801D199
:1066C000022034E0002E01D0002F01D105202EE061
:1066D000B88802282ADADFF81C18BA881420424346
:1066E000885C00281ED13900B888FFF761FF0028B8
:1066F00016D03968002C03D0888822889042F2D1C5
:10670000002D03D008882A889042ECD18868306038
:1067100038687060DFF8480A00893081002006E0A0
:1067200000203860B888401CB880D1E70A20F2BD4C
:10673000F8B504002100DFF8D00B006801F087F9FC
:1067400005001C2600273A003100280001F0BAF9A4
:106750002800F2BD10B504002100DFF8AC0B006882
:1067600001F084F910BD10B504002100DFF8980B8A
:10677000006801F089F910BD10B504002100DFF8B0
:10678000880B006801F08FF910BD80B50121DFF89A
:106790007C0B01F0A5F8002801D0012000E00020CA
:1067A000C0B202BD2DE9F0470024002503260027D2
:1067B0005FF00008404680B2032880F2CB80DFF80B
:1067C0002C07C168424692B24FF48050424301EB1D
:1067D00002094846FFF7AFFD82465046C0B2002886
:1067E00051D001287CD0032840F0B1804846FFF703
:1067F000B9FD002832D0DFF8D4070068002820D087
:106800000221DFF864292B009BB214204343D154AA
:10681000DFF854192A0092B21420424301EB02001F
:10682000C0F804900221DFF840292B009BB214200D
:10683000434302EB03000181DFF8240945806D1C0E
:1068400009E0DFF88807C0F800900220DFF87C1725
:1068500088800120070054F0010413E0761EDFF861
:1068600008192A0092B21420424301EB0200C0F83A
:1068700004900321DFF8F0282B009BB2142043433F
:10688000D1546D1C63E00021DFF8DC282B009BB2A3
:1068900014204343D154DFF8D0182A0092B21420B8
:1068A000424301EB0200C0F80490DFF8BC182A0054
:1068B00092B21420424301EB020010F11002DFF803
:1068C000A8182B009BB21420434301EB030010F1E6
:1068D00008014846FFF79DFD54F002046D1C36E0A8
:1068E0003800C0B200281ED00221DFF87C282B001F
:1068F0009BB214204343D154DFF8D0060168DFF87F
:1069000068282B009BB21420434302EB0300416034
:106910000221DFF854282B009BB21420434302EBE2
:10692000030001816D1CDFF8A406C0F8009000226E
:10693000DFF8681B4846FFF76CFDDFF8900680889B
:10694000022801D1042000E008200443FFE718F1E9
:1069500001082FE7300080B2022801DA002004008D
:106960002000C0B2BDE8F08738B504000D00022059
:10697000A075002000900423221D2900DFF86C057B
:1069800000F0A1FE002801D1002000E00E2032BD61
:1069900038B504000D002069002801D0032000E074
:1069A0000120A07500200090042314F10C0215F1C1
:1069B0000801DFF8380500F086FE002801D100202C
:1069C00000E00E2032BD38B504000D002078032809
:1069D00001D1052000E00620A075002000900423CE
:1069E00014F10802291DDFF8040500F06CFE0028F0
:1069F00001D1002000E00E2032BD7CB504000D0066
:106A0000002000900423DFF81C2B2100DFF8DC04B9
:106A100000F059FE0100002901D00E200AE00122F9
:106A2000DFF844372E00B6B21420464303EB0600CD
:106A30000274002076BD38B584B0040001A800219E
:106A40000022002380E80E00E0680190694601A85A
:106A5000FFF7EEFD00280AD0029DA888E080288874
:106A60002081BDF800100298FFF7C7FF00E00A2060
:106A700005B030BD2DE9FF410500DFF8883B6A46CF
:106A80000021A81DFFF712FE0400002C07D1DFF83B
:106A9000740B81880198FFF7B0FF040008E0082616
:106AA0000027DFF8608B3A003100404601F00AF819
:106AB000200004B0BDE8F08138B504000D000120CD
:106AC000A07500200090E0888300226915F10C0178
:106AD000DFF8180400F0F7FD002801D1002000E0E5
:106AE0000E2032BDDFF878060089401CDFF87016F2
:106AF00008810020DFF8681648800020DFF8601663
:106B000008730021080080B2022813DADFF8582643
:106B10000B009BB214204343D05C002801D101201C
:106B200000E00020DFF838260B009BB21A44907278
:106B3000491CE7E7704730B4020000210023180029
:106B400080B202282ADADFF818061C00A4B220441A
:106B5000807A002820D00020DFF804461D00ADB266
:106B60002C44A072DFF800461D00ADB2142045434E
:106B700004EB0500C06800280ED1DFF8EC451D00CD
:106B8000ADB21420454304EB0500007C012803D17D
:106B900013800120010001E05B1CD0E70800C0B2B7
:106BA00030BC704780B50520DFF8B41508700220AE
:106BB000DFF81814888000230122DFF81004016830
:106BC000DFF8640900F0C6FD02BD38B5DFF89005B6
:106BD0004488C849220092B21420424301EB0200CB
:106BE000C068002812D10420DFF874150870002353
:106BF0000122C0492500ADB21420454301EB050038
:106C00004168DFF8240900F0A5FD01E0FFF7CAFFA5
:106C100032BD7CB5DFF848054468DFF8B003006892
:106C2000DFF8A813898800EB81056688F61C03202D
:106C3000DFF82C15087000200090300080B283002F
:106C4000DFF81C0542682900A84800F03CFD76BD2D
:106C500080B5DFF80C1ADFF8B0094088FFF7A8FC10
:106C6000002802D0FFF7D5FF01E0FFF7AEFF02BD1D
:106C700080B50620DFF8E81408709E49DFF8E004CC
:106C800042881420424301EB02004068FFF71DFCDC
:106C900002BD80B50720DFF8C81408700020DFF8B7
:106CA000C0144860FFF703FC02BD80B5DFF8B409EB
:106CB000FFF741FF00280ED10020DFF8A414087070
:106CC0000020DFF89C1448800020DFF8941448600E
:106CD00041F61D5001E0FFF7BBFF02BDDFF8800465
:106CE00040684188C91CB94A92888A18B74B9A8073
:106CF000704710B4B54801687E4ADFF864044388E1
:106D00001420434302EB03004068B04A1060794A04
:106D1000DFF84C0443881420434302EB0300416036
:106D2000AA488288734BDFF838044488142044430F
:106D300003EB040002810220A44A908010BC70473B
:106D400080B5DFF81C04007800280AD003280FD093
:106D5000042814D0052819D0062817D007281AD0DF
:106D60001EE0FFF7BFFE0120DFF8F413087017E004
:106D7000FFF7B4FF0220DFF8E813087010E0FFF718
:106D8000B8FF0620DFF8D813087009E00720DFF805
:106D9000D013087004E00120DFF8C4130870FFE787
:106DA00001BD000034860020DEC0ADDE2DE9F041DB
:106DB00004000E000F25002C05D00020DFF8A818D5
:106DC000486001208FE03079002805D0022840D0AB
:106DD00008D303284BD07DE001203071FFF767FB1B
:106DE000050077E000275FF00008404680B20228E7
:106DF0001FDA4049424692B214204243885C02287E
:106E000014D100213B4A43469BB214204343D15442
:106E1000012007003749424692B21420424301EB59
:106E200002004068FFF751FB050002E018F101087D
:106E3000DBE73800C0B200280AD10120DFF82818AB
:106E400008700020DFF82018486041F61D504AE025
:106E500040E00020307102205C498880002301223C
:106E60005A480168214800F075FC050032E0002016
:106E7000307156480068FFF728FB0500B848418884
:106E8000524802681B4B0F00BFB21420474303EB6C
:106E9000070040684D4B1860164B0F00BFB214201E
:106EA000474303EB0700426048488388114F8C46F4
:106EB0001FFA8CFC142000FB0CFC07EB0C00038178
:106EC0000220424B988000230A4F89B2142041438C
:106ED0007B54FFE7002D05D00020DFF88C174860B9
:106EE0000E2000E00020BDE8F0810000102C002002
:106EF000FE011EF15C8400202DE9F04104000E002B
:106F00009949B28A1420424301EB0207002C05D0B4
:106F100031003800FFF7BDFA012051E07868398967
:106F200000EB8108B07D00281BD002281FD02AD397
:106F3000042804D021D3062837D02AD338E00020F3
:106F4000DFF828174860B069DFF820170860DFF81D
:106F50002017DFF81807FFF76BFB002801D10A2084
:106F60002EE041463000FFF7FFFC050021E04146DE
:106F70003000FFF70DFD05001BE041463000FFF734
:106F80009BFD050015E041463000FFF71CFD0500A4
:106F90000FE00620B075DFF8D8060188DFF8CC06D0
:106FA0004068FFF72AFD050003E041F61D5500E0AB
:106FB0000F25002D03D031003800FFF76AFA2800B2
:106FC000BDE8F081AC870020885D03005087002079
:106FD000905D030038B504000D00002C01D00120A5
:106FE00019E02879002803D0022810D006D311E038
:106FF000022028712800FFF71EFD0CE02800FFF793
:1070000039FD0A2802D141F61D51080003E041F67E
:107010001D5000E00F2032BD10B50400002C01D03F
:1070200001202BE04E48007B002803D000204C4973
:10703000087301E0FFF784FE4948007801280AD070
:1070400002280BD003280CD004280DD006280ED01F
:1070500007280FD011E0FFF728FE0FE0FFF7F8FD3B
:107060000CE0FFF7D6FD09E0FFF7AFFD06E0FFF704
:10707000FFFD03E0FFF70DFE00E00F2010BD18B587
:1070800085B00400DFF8EC050068002806D1DFF8C1
:10709000E805FFF768FBDFF8DC150860DFF8D405CA
:1070A00000680078012809D025D303280ED00DD31D
:1070B000052813D012D3062818D01CE0DFF8B40539
:1070C00001682000FFF772FE040016E0DFF8A40557
:1070D00001682000FFF710FF04000EE0DFF89405C0
:1070E00001682000FFF776FF040006E02000FFF7AC
:1070F00093FF040001E00F200400002C22D068461A
:10710000142100F013FD41F61D50844201D10020EE
:1071100000E0200001906946DFF858050068FFF79D
:107120008BF86846FFF774F80020DFF84815086010
:1071300000200400DFF84005FFF71EFBFFF725FBEA
:1071400000289FD106B010BD80B501216F4800F026
:10715000ABFB002802D10020FFF791FF01BD00002A
:1071600054860020488700205C84002010B504006D
:107170006068FFF784FF10BD2DE9FE4F04000D008D
:10718000160099465FF0000A5FF00008DFF8D804A7
:107190000078002801D102206DE0002D01D10520EA
:1071A00069E028884FF6FF71884202D0688800287D
:1071B00001D104205FE06868FFF722F8002801D1C0
:1071C000032058E0002E0BD1D5F808B06946584688
:1071D00080B2FFF787F90700002F06D038004AE099
:1071E0003088ADF80000B6F802B001A8FFF7A0FAA9
:1071F0008046B8F1000F07D1BDF80010584680B2A4
:10720000FFF7B8F9082036E088F80090002088F8E9
:107210001600BDF80000A8F814006868C8F810004F
:10722000FFF7BFF9C8F80C002888A8F8080068889C
:10723000A8F80400A8F806B04846C0B2032805D153
:10724000042088F816002068C8F81800A8F80AA0DA
:1072500001A8FFF77FFA002C0AD000206060D8F860
:107260000C0020600020A072DFF89C0300892081C0
:10727000FFF76AFF0020BDE8FE8F10B50400DFF8BD
:10728000FC030068042801D10C200CE0DFF8F003B7
:10729000DFF8E813096840F821400121DFF8DC033A
:1072A00000F010FB002010BDDFF8D8030068DFF805
:1072B000D8130968DFF8D423126810F1010F01D147
:1072C00010004843704710B54FF44054FFF7ECFFEF
:1072D0009549086194480069001B9349C86010BD36
:1072E00080B5FFF7F0FF0022DFF8A4138E4800F00E
:1072F000D7F902BD80B51C238C22DFF89813024811
:10730000006800F07CFB01BD385E0300A48700200C
:1073100070B586B001A8142100F008FCDFF848031E
:107320000078002804D001A8FEF772FF002058E082
:10733000DFF8640300F0E1FA002801D0002050E0FB
:10734000FFF7CEFF0400002C01D0200049E0FFF73A
:10735000D1FFFFF727FA06003000C0B2002804D0A2
:10736000022802D0062802D00EE00B2039E00120CE
:10737000DFF8F41208700020DFF8EC12486001A872
:10738000FEF746FF00202CE06846FFF7D1F9050024
:10739000002D01D1082024E0012028703000C0B267
:1073A00001280CD003280AD0052811D007280FD0B7
:1073B000092807D00A2808D00B2803D00BE00020AA
:1073C000287108E00320287105E00220287102E0FE
:1073D00001202871FFE76846FFF7BCF9FFF7B4FE0C
:1073E000002006B070BD7CB504000D00002C01D05B
:1073F000002D01D105201BE069462000FFF718F998
:10740000002814D066680121DFF89022BDF8003012
:107410001420434302EB03000C3000F053FA2E60BB
:1074200060680C3068600120A072002000E00A2033
:1074300076BD1CB50400002C01D105202DE0694665
:107440002000FFF7F5F8002826D0DFF85012BDF82D
:1074500000201420424301EB0200C068002819D02C
:10746000A07A002816D0DFF83412BDF800201420CE
:10747000424301EB0200C168491EDFF82022BDF83B
:1074800000301420434302EB0300C1600020A072CF
:10749000002002E0062000E00A2016BD54870020EC
:1074A00038B504000D0070480078002801D1022092
:1074B0000EE0002C01D105200AE06946280080B2C8
:1074C000FFF710F8002803D1BDF800102180658077
:1074D00032BD38B5040064480078002801D102208C
:1074E0001EE0002C01D105201AE02088032801DBD2
:1074F000042015E0694922881420424301EB02056B
:1075000068896188C91C884209DB21886088FFF787
:1075100031F80020208000206080002000E004205E
:1075200032BD00003C5E0300102C002038B5040082
:107530000D000223002229002000FFF71DFE32BDAE
:1075400070B505000E001400002C01D1052005E0E7
:107550000223220031002800FFF70EFE70BD38B56F
:1075600004000D00002C01D1052005E003230022BA
:1075700029002000FFF700FE32BD38B505003A486B
:107580000078002801D102201AE0280080B24FF6CE
:10759000FF71884201D1042012E06846FFF7C8F865
:1075A0000400002C01D108200AE0052020700120F1
:1075B0002071E5806846FFF7CDF8FFF7C5FD002094
:1075C00032BD1CB528480078002801D1022016E001
:1075D0006846FFF7ADF80400002C01D108200EE04A
:1075E000062020706846FFF7B5F8074800780028A5
:1075F00002D0012004490873FFF7A6FD002016BD44
:1076000000000000588700205486002033B581B068
:1076100014001D002B00220002A901A8FFF746F864
:107620003EBD31B50C0015002B002200694600203C
:10763000FFF73CF832BD31B50C0015002B002200DD
:1076400000216846FFF732F832BD0200002A01D05F
:10765000002901D1052002E0106808600020704771
:107660005886002056860020488700209C860020EF
:10767000FA870020B0870020B4870020A887002068
:1076800034860020141000101000001014000010A8
:10769000A05A0300188100204C8700205C84002041
:1076A00070B505000C001600002D01D10E2009E078
:1076B000002C01D10E2005E02C60310028002A6842
:1076C0001268904770BD2DE9FC4104000F001500C1
:1076D0001E00DDF82080002C01D10E2038E0002DA6
:1076E00001D10E2034E02068002801D108202FE0CD
:1076F000002E01D109202BE060684068B6FBF0F154
:1077000000FB1160002801D0092021E0380000F0C2
:107710008EF8002801D110201AE0280000F087F828
:10772000002801D1102013E032003900200000F0C1
:1077300071F8002801D110200AE0CDF80080330054
:107740002A0039002000D4F800C0DCF80CC0E04763
:10775000BDE8F681F8B505000E0014001F00002DED
:1077600001D10E2025E02868002801D1082020E062
:10777000002C01D109201CE03100280000F05FF846
:10778000002801D1102014E06868026802FB04F2AE
:107790003100280000F03EF8002801D1102008E058
:1077A0003B00220031002800D5F800C0DCF810C0F2
:1077B000E047F2BD38B50400002C02D02068002854
:1077C0001DD1002510491148091A1420B1FBF0F011
:1077D000854212D20E48142101FB05F10844040031
:1077E0002068002807D020002168C9698847002840
:1077F00001D0012007E06D1CE4E7002003E0200039
:107800002168C969884732BD382C0020102C00201F
:10781000102C0020C368994206D300695118491EF4
:10782000884201D3012000E00020C0B2704710F070
:10783000030F01D1012000E00020C0B27047406872
:107840000068401E014201D1012000E00020C0B2CA
:107850007047000010B4020052E8000F40EA010334
:1078600042E8003494F0000FF6D110BC70470000DD
:1078700010B4020052E8003F43EA010042E800046D
:1078800094F0000FF6D110BC7047000010B4020055
:1078900052E8003F03EA010042E8000494F0000FC0
:1078A000F6D110BC7047000010B4020052E8000F7F
:1078B00000EB010342E8003494F0000FF6D110BC55
:1078C0007047000010B4020052E8003F03EB0100D3
:1078D00042E8000494F0000FF6D110BC704700009D
:1078E00010B4020052E8003FA3EB010042E800049C
:1078F00094F0000FF6D110BC704710B504000121C0
:107900002000FFF7A7FF10BD3CB4020052E8015F62
:10791000ABB2D48923449489A34228BF1B1B14898A
:10792000A34202BFBFF32F8F002007E0C3EA050385
:1079300042E80134002CE9D14FF0010001958DF8A7
:107940000000019808609DF8000036BC70470000F8
:1079500050E8012FC2EA024240E801210029F7D194
:10796000704700003CB4020052E8025F1FFAA5F322
:10797000D488A34202BFBFF32F8F00200DE0D4892B
:1079800023449489A34228BF1B1BC5EA034342E852
:107990000234002CE8D14FF0010001958DF8000071
:1079A000019808609DF8000036BC704750E8022F2F
:1079B000C2EA224240E802210029F7D170470000C4
:1079C00081B0010051E8022FCB88B2EB324F4FF06B
:1079D000000017BF92B243EA034342EA034304E0C4
:1079E0004A68B2EB324F08BF012041E80232002A58
:1079F000E8D18DF800009DF8000001B0704770B428
:107A00000400002901D10E2013E0100080B21D00F7
:107A1000ADB290FBF5F605FB1600002801D0092059
:107A200007E02160002060600020A060A281E38167
:107A3000002070BC704710B504002000FFF7C0FFA5
:107A4000C0B2002801D0002000E0112010BD38B5E0
:107A500004000D0029002000FFF756FF002803D086
:107A600020682988084400E0002032BD38B50400B1
:107A70000D0028886988884204D12000FFF768FF3C
:107A8000012000E0002032BD38B504000D002900BF
:107A90002000FFF767FF002803D0206869880844AA
:107AA00000E0002032BD38B504000D002888698848
:107AB000884204D12000FFF779FF012000E0002078
:107AC00032BDFEE762F30F2262F31F42401810F04E
:107AD000030308D0C91A1FD3DB0748BF00F8012DE4
:107AE00028BF20F8022D130030B414461546103973
:107AF00028BF20E93C00FAD8490728BF20E90C003C
:107B000048BF40F8042D890028BF20F8022D48BF47
:107B100000F8012D30BC7047C91818BF00F8012DBE
:107B2000CB0728BF00F8012D7047FEE7002200F0C8
:107B300001B8FEE700B500BF130096469446103921
:107B400028BFA0E80C50FAD85FEA417C28BF0CC0DF
:107B500048BF40F8042BC90728BF20F8022B48BFB4
:107B600000F8012B00BDFEE701005FF0A040704768
:107B70002DE9F14181B00E0017009846089C099D3F
:107B800001A8FFF7F1FF3100C9B23A00D2B251EAC1
:107B900042014246D2B251EA82012200D2B251EAF7
:107BA00002212A00D2B251EA0241019A00EB82027C
:107BB000C2F80017BDE8F3813EB504000D000020B7
:107BC0000190002000902B00DBB200220021200059
:107BD000FFF7CEFF37BD2DE9F84F04005FF4BE2557
:107BE0000026F02E3CD2D4F80300D5F803108842CA
:107BF00033D14FF4805000902F003F0B4FF4805052
:107C00004743DFF83C8B009A3900404601F058F8B2
:107C1000A8465FEA18384FF4805000FB18585FF010
:107C200011094FF0FF0ADFF8180B00EB080B524662
:107C300049465846FFF746FF4FF48052DFF8001BD5
:107C40005FF4BE2001F0CAF8DFF8F80A8088401E11
:107C5000DFF8F01A8880002003E01135761CC0E7B9
:107C60000120BDE8F28F5FF4BE210022F02A07D286
:107C70008878FF2801D0080003E01131521CF5E795
:107C8000002070475FF4BE210022F02A07D28878D6
:107C9000FF2801D1080003E01131521CF5E7002054
:107CA000704700205FF4BE210022F02A06D28B78B4
:107CB000FF2B00D0401C1131521CF6E7704738B53D
:107CC00001F078FA05002C00002C02D0200001F011
:107CD00039FB31BD70B505002800C0B2012802D1C2
:107CE000FFF7EDFF0BE00321DFF8D40A01F06DFD93
:107CF00006003400002C02D0200001F023FB70BDF0
:107D00000178052970477CB505002878002812D035
:107D1000022811D0032810D004280FD0062817D02D
:107D200007283AD0092823D00B2828D00C281BD0AC
:107D30000D282BD038E037E036E035E0DFF8840A54
:107D400000788DF800006946688801F01BFA2BE086
:107D5000FFF737FC0600082E05D03400002C02D0B7
:107D6000200001F0EFFA1FE00020FFF7B3FF1BE057
:107D70002C69002C02D0200001F0E4FA14E0AC6879
:107D8000002C02D0200001F0DDFA0DE0AC68002CE0
:107D900002D0200001F0D6FA06E0AC68002C02D038
:107DA000200001F0CFFAFFE773BD10B54FF6FE7269
:107DB0000021DFF8140A01F09AFF0400002C0CD017
:107DC000082C0AD0132C08D0112C06D043F2014005
:107DD000844202D0200001F0B5FA10BD10B50400B5
:107DE000FFF7E3FF10BD70B50500DFF8E009068876
:107DF000DFF8DC090068401CDFF8D41908603100A6
:107E000089B2DFF8D00902F0F4F90400002C0CD09C
:107E1000082C0AD0132C08D0112C06D043F20140B4
:107E2000844202D0200001F08DFA0320DFF8A0196F
:107E30000968DFF89C291268B2FBF0F200FB12100F
:107E4000002804D00120DFF89019087003E000201A
:107E5000DFF88419087070BD10B50400DFF87C09E4
:107E60000178DFF8700902F000FA10BD70B502F079
:107E7000C4FD05002C00002C02D0200001F062FAA5
:107E8000DFF85C290121DFF85C0902F0DEFD060065
:107E90003400002C02D0200001F054FADFF8482909
:107EA0000121DFF8480902F0D0FD05002C00002C6C
:107EB00002D0200001F046FADFF834290121DFF872
:107EC000340902F0C2FD06003400002C02D020006C
:107ED00001F038FA70BD2DE9FF4101208DF8000056
:107EE0009DF8000010F00F0050F010008DF8000019
:107EF0000C22DFF8041968467CDF06003400002CF1
:107F000002D0200001F01EFA40F2413078DF050077
:107F10002C00002C02D0200001F014FA08260027C3
:107F200001AC3A0031002000FFF7CCFD4FF4A07007
:107F3000ADF804004FF40270ADF806000020ADF873
:107F400008004FF4C870ADF80A0001A87ADF804637
:107F50004446002C02D0200001F0F4F9BDE8FF8176
:107F600038B504000D00288840F67721884204D1F6
:107F7000A888C01EDFF8841808802900DFF854089C
:107F800002F076F931BD70B5DFF87418DFF87408C7
:107F900002F04CFF05002C00002C02D0200001F064
:107FA000D1F9F721DFF85C0802F05AFF060034002F
:107FB000002C02D0200001F0C5F970BD10B50400FE
:107FC000200001F0BFF910BD2DE9F84189B005008E
:107FD0002878002840F0E3802869DFF82C18086032
:107FE000AC8A2F69DFF82418DFF8240802781B20F8
:107FF000424301EB0208DFF818080078401CDFF864
:108000001018087022003900404600F059FEDFF8D1
:10801000000800780A2803DB0020DFF8F417087056
:10802000DFF8E40700680078C0F34000C0B2002821
:1080300040F09D80DFF8D0070068007810F0010064
:10804000002840F094801B2400270DF108083A0016
:1080500021004046FFF736FD00200190DFF8A80719
:1080600000688078012807D037D3032817D007D3BA
:1080700005282FD01ED330E00320ADF800002CE0FF
:108080000F20ADF800000C24DFF8880707680DF119
:108090000B0822003900404600F012FE1DE00320CC
:1080A000ADF80000DFF860070068D0F8030003F0C7
:1080B000FBF812E00720ADF80000FFF7F2FD019099
:1080C000042401AF0DF10B0822003900404600F0F6
:1080D000F7FD02E00320ADF80000DFF82C07006890
:1080E0000078C0F38010C0B2002864D09DF808006A
:1080F00010F0FE008DF808009DF8080010F0E30075
:108100008DF808009DF8080050F002008DF8080076
:108110009DF8080010F0BF008DF80800DFF8E806B1
:10812000006840788DF80900DFF8DC060068807888
:108130008DF80A000120DFF80C1B0870DFF8D80664
:1081400003886A4602A9DFF8D40603F073FB060031
:10815000082E09D0112E07D0052E05D03400002C92
:1081600002D0200001F0EEF8112E24D1E6E7DFF86E
:10817000980600680078C0F34000C0B200281AD00A
:10818000DFF884060068007810F00100002812D1A2
:10819000DFF874060068807806280CD10BE0287898
:1081A000012808D1DFF89C0A0078012803D10020BB
:1081B000DFF8901A08700AB0BDE8F0812DE9F841A7
:1081C0009DB0DFF8840A00680C90DFF8800A0C90FC
:1081D0000CA9DFF87C0A03F072FB06003400002CC7
:1081E00002D0200001F0AEF803208DF80000142723
:1081F0005FF0000801AC424639002000FFF762FC46
:108200000020019001208DF80800684603909DF839
:10821000100010F0F00050F001008DF810009DF8F3
:10822000100010F00F0050F010008DF810009DF8B5
:10823000110010F0F0008DF811009DF8110010F001
:108240000F008DF811009DF8120010F0F0008DF86D
:1082500012009DF8120010F00F008DF812009DF82A
:10826000130010F0F00050F001008DF813009DF89D
:10827000130010F00F0050F010008DF813009DF85F
:10828000140010F0F0008DF814009DF8140010F0A8
:108290000F008DF8140001A9DFF8380501F06FFF19
:1082A00005002C00002C02D0200001F04BF8142611
:1082B000002706AC3A0031002000FFF703FC9DF8D0
:1082C000250010F0F00050F001008DF825009DF819
:1082D000250010F00F0050F010008DF825009DF8DB
:1082E000260010F0F00050F001008DF826009DF8F7
:1082F000260010F00F0050F010008DF826009DF8B9
:10830000270010F0F0008DF827009DF8270010F0EE
:108310000F008DF827009DF8280010F0F00050F0B5
:1083200001008DF828009DF8280010F00F0050F093
:1083300010008DF828000020069001208DF81C0008
:108340000020089064208DF8240006A9DFF8780446
:1083500001F0A1FC80464446002C02D0200000F031
:10836000F1FF402500260DAC320029002000FFF768
:10837000A9FBAAA10DA803F080FB9DF8700010F0E6
:10838000F00050F001008DF870009DF8700010F0C2
:108390000F0050F010008DF870009DF8710010F083
:1083A000F0008DF871009DF8710010F00F008DF84D
:1083B00071000DA803F07BFC07003C00002C02D0EC
:1083C000200000F0BFFF04265FF000080BAC42461F
:1083D00031002000FFF776FBDFF878080B900BA93F
:1083E000DFF8740803F0E8F905002C00002C02D037
:1083F000200000F0A7FF1EB0BDE8F08138B50022D4
:108400004FF40041DFF8E403006802F03DFB050093
:108410002C00002C02D0200000F094FF31BD70B57C
:108420000500287800280BD13B21DFF830080088B0
:1084300076DF06003400002C02D0200000F082FF1E
:1084400070BD10B50400200000F07CFF10BDF0B539
:1084500087B01C2500266C46320029002000FFF75B
:1084600031FB002000905FF4203001905FF4702019
:10847000029003208DF80C00DFF858038089ADF8D6
:108480000E0000208DF81000DFF8D4070590DFF80B
:10849000D4070690684603F0AEFD07003C00002CB0
:1084A00002D0200000F04EFF07B0F0BD70B50020F4
:1084B00004F0DDF805002C00002C02D0200000F0B4
:1084C00041FF04F091F906003400002C02D0200096
:1084D00000F038FF33DF05002C00002C02D0200014
:1084E00000F030FF70BD70B505002800C0B2002854
:1084F0000CD003280DD1022004F0B9F80600340096
:10850000002C02D0200000F01DFF02E0FFF7CEFF9C
:10851000FFE770BD2DE9FC4105000E0028881028FA
:108520000CD011282AD0132841D021282FD03B2845
:108530005BD052284AD0562862D06CE0072004F065
:1085400096F880464446002C02D0200000F0FAFE47
:10855000A888DFF808170880DFF800070188DFF82F
:10856000F00603F0C3F907003C00002C02D0200005
:1085700000F0E8FE0120734908704CE04FF6FF70F0
:10858000DFF8D816088000206E49087043E0DFF855
:10859000D8060088ADF800006946A8888FDF07007C
:1085A0003C00002C02D0200000F0CCFE33E0002381
:1085B00000228521DFF8A40600887FDF07003C0049
:1085C000002C02D0200000F0BDFE24E00023002299
:1085D0000021DFF888060088B1DF07003C00002C8E
:1085E00002D0200000F0AEFE15E01321A88876DF4F
:1085F00007003C00002C02D0200000F0A3FE0AE09F
:108600001321A88876DF07003C00002C02D0200050
:1086100000F098FEFFE7BDE8F381000053435400EB
:108620007CB504F090FA05002C00002C02D020004C
:1086300000F088FE002000906946012004F04CFB09
:1086400006003400002C02D0200000F07BFE6846BB
:1086500004F0D3FB05002C00002C02D0200000F019
:1086600071FE73BD2DE9FC4100F022FD05002C00D8
:10867000002C02D0200000F065FE052600276C4685
:108680003A0031002000FFF71DFA9DF8000050F07D
:1086900001008DF800009DF8000010F0FD008DF83D
:1086A00000009DF8000010F08F0050F030008DF8B1
:1086B00000009DF8000010F07F008DF800000720FA
:1086C0008DF8010010208DF802009DF8030050F095
:1086D00001008DF803009DF8030050F002008DF8B2
:1086E00003009DF8040050F001008DF804009DF88F
:1086F000040050F002008DF80400684600F035FDDB
:1087000080464446002C02D0200000F01BFEDFF81B
:108710005C0500F00BFD05002C00002C02D02000B1
:1087200000F010FEDFF84805FEF7A7FD0600340054
:10873000002C02D0200000F005FEBDE8F38100000F
:10874000A843002060870020F0B5ABB0AC25002620
:108750006C46320029002000FFF7B4F902208DF8A2
:10876000000001208DF8020006208DF80300032090
:10877000ADF81000DFF8FC0405900120ADF84C00C6
:10878000DFF8F404149001208DF87C004FF496700B
:10879000229000202390DFF8E404299069460848DD
:1087A00000F07FFF07003C00002C02D0200000F00A
:1087B000C9FD0121024800F071FF2BB0F0BD00009F
:1087C000C07F0020905E0300E48500200288002026
:1087D000C887002004830020002C00202988002066
:1087E000DD7D0200485E0300E77D02004C5E030071
:1087F000597E0200505E0300185C0300FA2B002033
:10880000617F0200F8850020C0870020B47C002032
:1088100027880020BC870020F82B0020AC2B0020EC
:1088200038B500252C00002C02D0200000F08AFD75
:1088300031BD38B504F059FB05002C00002C02D0E6
:10884000200000F07FFD31BD80B504F05BFB01BD71
:108850002DE9F04F87B004F0E6FB03210520FFF778
:10886000ABF903210420FFF7A7F95FF4BC200078DF
:10887000C0B2FF2805D05FF4BC20DFF80414086004
:1088800004E0DFF80004DFF8F8130860DFF8F00315
:108890000068417A42F210704143642091FBF0F08D
:1088A000DFF8E4130880DFF8E003008842F211717A
:1088B000884204DB42F21070DFF8CC1308800020FD
:1088C0000100C9B2652927DADFF8BC130988DFF88F
:1088D000BC230300DBB222F83310DFF8AC130988A5
:1088E000DFF8A8230300DBB202EBC3025180DFF8FC
:1088F00098130988DFF894230300DBB202EBC3026C
:10890000918042F21071DFF884230300DBB202EBA6
:10891000C302D180401CD3E7DFF86C03B0F900003C
:10892000DFF86C130880FFF77BFF04F0D7FD04F03D
:1089300053FC04F0AAFCFFF799FAFFF77AFFFFF760
:108940006FFEFFF7C8FAFFF71EFBFFF737FCFFF7D4
:10895000FBFEFFF77CFDFFF785FEFFF74FFD9DF85F
:108960000200FFF7B7F904F080FEDFF8280302F0F9
:10897000E0FC00F01FFADFF810030088642190FB90
:10898000F1F0DFF814130880FFF75EFFB3480088AA
:108990004FF6FF71884200F00781C0480078C04957
:1089A0000978884200F0C980A6480078012800F0C4
:1089B000C480BC49BA4802781B204243885CC0F39B
:1089C0004000C0B2002840F08E80B649B44802781A
:1089D0001B20424301EB02008078012802D00528C9
:1089E0001AD09EE00C24AF49AD4802781B204243C8
:1089F00001EB0200C51CAC4F22002900380000F03A
:108A00005FF90C22A8495FF4BC2000F0E7F95FF49D
:108A1000BC209B49086084E0FFF725F90500002D84
:108A200019D01120ADF800008C4803886A4629004F
:108A3000894802F0FFFE0600082E09D0112E07D04B
:108A4000052E05D03400002C02D0200000F07AFC66
:108A5000112E47D1E8E79DF8040010F0FE008DF8D4
:108A600004009DF8040010F0FD008DF804009DF84E
:108A7000040010F0E3008DF804009DF8040010F0ED
:108A8000DF008DF804009DF8040010F0BF008DF8A1
:108A900004009DF8040010F07F008DF80400834866
:108AA0008078411C814A91708DF8050006208DF870
:108AB00006000320ADF80000684803886A4601A953
:108AC000654802F0B7FE0600082E09D0112E07D027
:108AD000052E05D03400002C02D0200000F032FC1E
:108AE000112EE9D01DE06F496D4802781B204243EA
:108AF000885CC0F34000C0B2002812D069496848C1
:108B000002781B20424301EB02008078062808D13E
:108B10006449634802781B20424301EB0200FFF7DF
:108B20005AF85F480078401C5D4908705C4800783E
:108B30000A2802DB00205A4908705D4800885D4918
:108B4000098880B288423FF41FAF01203D49087078
:108B50001120ADF80000414803886A46564955483F
:108B600004881120444321443B4802F063FE060080
:108B7000082E09D0112E07D0052E05D03400002C68
:108B800002D0200000F0DEFB112EE1D04948008821
:108B9000401C48490880474800886428FFF6F4AE26
:108BA000002044490880EFE641480088414909888F
:108BB00080B288423FF4E8AEFFF764F80400002C6E
:108BC00032D04FF4805527003F0B4FF4805047437D
:108BD000DFF8E8802A003900404600F071F8A0462E
:108BE0005FEA18384FF4805000FB1848314801887C
:108BF0005FF01109304A89B21120414302EB010AAA
:108C00002E4800EB080B4A465146584600F058F8EB
:108C10004FF4805229495FF4BE2000F0DFF823486A
:108C20008088401C2149888022480088401C2149B6
:108C30000880204800886428FFF6A6AE00201D4961
:108C40000880A1E626880020545E0300BD7F020054
:108C5000A8860020C97F0200AC2B0020F82B002042
:108C60001F8402004384020052780200077D020044
:108C7000017D0200C82B0020D42B0020E7840200D5
:108C8000BC870020D82B0020FC2B00208C790020F2
:108C900000880020B1CA135B0A88002027880020C2
:108CA00028880020B47C002080FF002060870020FE
:108CB0000688002008880020E8720020A8430020D1
:108CC00062B38B0708D0521E11F8013B00F8013B3C
:108CD00000F024808B07F6D1830740F0208000BF8E
:108CE000103A07D330B4B1E83810103AA0E8381081
:108CF000F9D230BC530724BFB1E80810A0E808102F
:108D000044BF51F8043B40F8043BD20724BF31F87C
:108D1000022B20F8022B44BF0B7803707047121F00
:108D200017D35B0009D151F8043B20F8023B1B0C20
:108D3000121F20F8023BF6D20BE051F8043B00F87A
:108D4000013B1B0A20F8023B1B0C121F00F8013BE1
:108D5000F3D238BF121D521E24BF11F8013B00F898
:108D6000013BF8D87047FEE72F4800682F49096893
:108D70002F4A126810F1010F01D1100048437047CB
:108D800041DF70474168002907D10178012902D0ED
:108D9000022901D001E000E0FFE77047704710B5FD
:108DA00004002000FEF706FD002802D0FFF7E8FFD0
:108DB000F7E710BD70B51F4E002231001E48FEF7C8
:108DC0006FFC05002C00002C02D0200000F0BAFA45
:108DD0001948FFF7E3FFFFF7C7FF70BD2DE9F84320
:108DE00005000E0017000023012229001248FEF79B
:108DF000B1FC80464446002C02D0200000F0A2FACC
:108E0000002000903B00320029000B48FEF75BFC7D
:108E100081464C46002C02D0200000F093FA064810
:108E2000FFF7BDFFBDE8F283141000101000001022
:108E300014000010A05A0300242C002038B50400B0
:108E40000025DFF8DC040078854207DA2000DFF82F
:108E5000D41451F8251088476D1CF2E731BD80B558
:108E600000230022DFF8C014DFF8C00400F0E9F9A5
:108E7000002801D0052804D10121DFF8B4241170A5
:108E800003E00021DFF8A824117001BD2DE9F841AD
:108E900085B004000125A08804F079FE6080207868
:108EA000082808D0C0F0CA800A285ED041D30B2819
:108EB00000F09D80C2E0607A002826D1DFF87404BB
:108EC0000068002810D0DFF86C040068E168884270
:108ED0000AD10020DFF85C140860A088DFF84C1489
:108EE00008800020E06023E0DFF8440400780028D8
:108EF0001ED0A088DFF834140988884218D1207A5F
:108F0000062815D1FFF7ABFF12E0607A01280FD1D8
:108F1000DFF81C04007800280AD0A088DFF80C14C1
:108F20000988884204D1207A062801D1FFF797FFEB
:108F300084E0607A002817D1DFF8F8030068002881
:108F400012D0DFF8F0030068E16888420CD10020FD
:108F5000DFF8E0130860DFF8D0030068401EDFF898
:108F6000C81308600020E06068E0DFF8CC030078F8
:108F700000282ED04FF6FF7005F02BFA4FF6FF7148
:108F8000884226D14FF6FF7005F02AFA4FF6FF719E
:108F900088421ED10020DFF8A01308701426002795
:108FA000E8463A0031004046FEF78CFD0C208DF873
:108FB00000004FF6FF70ADF804004FF6FF70ADF8FB
:108FC0000200002005002000FFF738FF6846FFF789
:108FD00035FFDFF85C030078002807D0A088DFF8B1
:108FE0004C130988884201D1FFF739FF26E0DFF8EA
:108FF00048030078002820D00020DFF83C130870D8
:1090000014260027E8463A0031004046FEF75AFD94
:109010000D208DF800004FF6FF70ADF804004FF6FC
:10902000FF70ADF80200A06802900020050020004B
:10903000FFF704FF6846FFF701FFFFE72800C0B213
:10904000002802D02000FFF7F9FE06B0BDE8F0814D
:1090500010B50400002C02D02000FFF7EFFE10BD79
:1090600010B504002000FFF7E9FE10BD10B50400A4
:109070002000FFF7E3FE10BD38B504000D00DFF857
:10908000BC020078002808D0200004F0FCFB20007F
:1090900005F0FFFB200005F0A9FE31BD4FF6FF7083
:1090A000DFF8881208800020DFF888120860704717
:1090B00038B506F092F80400002C01D0032034E00B
:1090C00005F00EF80500002D01D003202DE005F07D
:1090D000BDFB0400002C01D0032026E006F029FD92
:1090E0000500002D01D003201FE005F04CFE040018
:1090F000002C01D0032018E006F0D9FE0500002D59
:1091000001D0032011E004F09FFC0400002C01D0EA
:1091100003200AE0FFF7C2FF0020DFF814120870F6
:109120000120DFF818120870002032BD0100DFF8BE
:109130000C020078002801D1082015E0DFF8E001DA
:109140000078032801DB04200EE0DFF8D801DFF807
:10915000D021127840F82210DFF8C4010078401CBA
:10916000DFF8BC211070002070471CB50400DFF848
:10917000CC010078002801D1082002E0200005F091
:1091800004FC16BD38B505000C00002C04D02100ED
:10919000280080B205F019FC31BD10B50400674805
:1091A0000078002801D1082003E0200080B204F0FC
:1091B0003CFD10BDF0B585B060480078002801D1B5
:1091C00008203CE001205C4908704FF6FF7005F074
:1091D00000F90500280080B24FF6FF71884218D1CF
:1091E000002055490870142400266F4632002100E3
:1091F0003800FEF767FC0C208DF800004FF6FF707A
:10920000ADF804004FF6FF70ADF802006846FFF7B6
:1092100015FE280080B24FF6FF7188420ED028005C
:1092200080B2FFF7BAFF0400002C01D0032006E053
:10923000280080B205F0CDF80500EAE7002005B06F
:10924000F0BD2DE9F34F83B015001E003B480078B8
:10925000002801D108205FE04FF6FF7005F0B9F853
:109260000700002000903648D0E90023CDE9012313
:109270006846029001AA0621380080B205F0B7F8CE
:1092800004005FF000085FF0FF394FF6FF7A4FF6F9
:10929000FF7B072C01D105203EE0002C01D0052CDE
:1092A0001CD1052C01D1002000900098404502D32C
:1092B00000988046BA460098484502D200988146F8
:1092C000BB46380080B205F084F8070001AA0621E9
:1092D000380080B205F08BF80400DEE7380080B279
:1092E0004FF6FF71884215D100210398002802D063
:1092F0000398A0F800A00498002802D00498C0F8B1
:109300000080002D01D0A5F800B0002E03D0C6F8D3
:10931000009000E00321080005B0BDE8F08F0000D8
:1093200038880020E4860020E48700200C88002094
:1093300036880020E087002037880020358800200C
:10934000E85D03001FB504006846002100220023E9
:1093500080E80E0002946A46002144F2010004F005
:10936000B7F91FBD78B589B004000D0016000120C3
:109370008DF800009DF800001B4804601A48456005
:1093800019488660200044F20101401A0ED0401EA8
:109390001DD11548C6601448C0680088124988610C
:1093A0001148C06840681049C86110E00E48066165
:1093B0000D48006980680C4948610B4800690068E5
:1093C000094988610848006940680749C86101A8DF
:1093D00005492022FFF784FC72B69DF800000028A2
:1093E000FBD162B60AB070BD8484002090F8B4004E
:1093F000704701000022062A06D2885C002801D0AE
:10940000012002E0521CF6E700207047C0B2401C69
:10941000052190FBF1F201FB1200C0B27047CA7B3C
:10942000012A02D18A88A0F8A820704770B50500EB
:109430000E00002085F8B200B088B5F8A810884268
:109440000FD1287900280CD10121280000F0BDF9A6
:109450000400002C05D0A86B002802D02000A96BC6
:10946000884770BD70B505000E003088262816D1DB
:10947000307A012802D0307A022810D1A878FFF77C
:10948000C5FF0100C9B2280000F09FF90400002CBC
:1094900005D0A86B002802D02000A96B884770BDBA
:1094A00080B50020FEF786F902BD38B504000D0036
:1094B00014F1AB00FFF79DFF01002800C0B20128A6
:1094C00006D025D3032819D00FD304281BD01FE0C2
:1094D000A079002809D094F82400002805D10800BC
:1094E000C0B2002801D0012013E0E079002805D0A7
:1094F0000800C0B2002801D002200AE0207A00282B
:1095000001D0032005E0607A002801D0042000E0AB
:10951000002032BD0200012082F831000020C2F894
:10952000A40012F1AA0048600020886002200870A0
:1095300080208881002070470200022082F83100DC
:1095400092F82400002802D00720087001E00320D0
:109550000870106988810020C2F8A40012F1AA00E6
:109560004860D06888600020704710B504006079BA
:1095700000280AD094F8B200002806D12000FFF796
:1095800035FF002801D0012000E00020C0B210BD4E
:1095900038B504000D000122B4F89810D4F89400F6
:1095A00007F058F90300002B00D01D7014F13C02A5
:1095B00014F1940114F1540072DF32BD70B504004F
:1095C0000D006069A860A069A88194F824000028B3
:1095D00003D0062084F83C0002E0012084F83C001F
:1095E0002000FFF7C2FF00280DD0022028750421BB
:1095F0002000FFF7CDFF0600300000280BD105202A
:1096000084F8310002E0032084F8310014F1940062
:10961000C4F8A400002070BD70B504000D00E0691E
:10962000A860206AA88194F82400002803D00620AE
:1096300084F83C0002E0012084F83C002000FFF7A1
:1096400094FF00280DD00220287504212000FFF788
:109650009FFF0600300000280BD1062084F831005F
:1096600002E0042084F8310014F19400C4F8A4004E
:10967000002070BD01008878012805D191F82000F4
:10968000012801D1002008E0886A042802D0486A35
:10969000042801D1002000E00120704780F830103C
:1096A00070472DE9F04104000D00002D01D0002C81
:1096B00001D10E207CE015F17800FFF7DBFF0028D8
:1096C00001D1072074E00020A070201D15F1780161
:1096D0002C22FFF705FB002084F83000D5F8A40009
:1096E0006063D5F8A800A0634FF6FF70A4F8A80047
:1096F00014F19400C4F8A4000726002714F1AA0866
:109700003A0031004046FEF7DDF92078002802D10A
:10971000FF2084F8540014F15500C4F894001F2071
:10972000A4F8980014F1980214F15501280006F0ED
:10973000A5FF0600300000283AD115F13C000028B2
:1097400013D014F17400C4F89C001F20A4F8A000EA
:1097500014F1A002D4F89C1015F13C0006F08EFF25
:1097600006003000002823D105E00020C4F89C004A
:109770000020A4F8A000012084F85100A069A4F8FA
:109780004800012084F83C0000202064002084F878
:1097900050006069606414F13C02002114F154002F
:1097A00072DF01000800002802D1012020700800AB
:1097B000BDE8F08101000868012802D0086802288D
:1097C00001D1012000E0002070472DE9F843050099
:1097D0000E002878002801D10820CDE0AE70FFF7F8
:1097E0005FFE002803D0012068700020C4E0072736
:1097F0005FF0000815F1AA09424639004846FEF715
:1098000061F9A879002802D0A87801280BD0E8795E
:10981000002802D0A878012805D0E87900280FD0C8
:10982000A87802280CD1686B002806D0012085F8A2
:10983000B1000820696B884702E0002085F8B1007C
:109840003100C9B22800FFF730FEA870686B00280D
:1098500016D0A878032802D0A878042810D16879F7
:1098600000280DD095F8B200002809D1002085F815
:10987000B400012085F8B3000720696B884702E037
:10988000002085F8B30018275FF0000815F13C09A7
:10989000424639004846FEF715F9012085F83C009C
:1098A00015F12C00FFF786FF002803D0E86A85F841
:1098B000510002E0012085F8510095F824000028AD
:1098C0000CD015F12C00FFF775FF002803D0A86A13
:1098D00085F8520002E0012085F85200002085F84A
:1098E0005000A878002822D002280BD003D30428E7
:1098F00016D00ED31FE015F13C012800FFF70AFE39
:10990000040018E015F13C012800FFF715FE0400E3
:1099100011E015F13C012800FFF750FE04000AE0B9
:1099200015F13C012800FFF777FE040003E000205A
:1099300085F83100FFE7A878002815D015F13C0222
:10994000D5F8A41015F1540072DF0200002A01D0EE
:10995000100011E095F8301095F8540073DF040002
:10996000002C01D0200007E0686B002803D095F898
:109970003100696B88470020BDE8F28370B50400B0
:109980000D002E002088102804D0112807D026288A
:109990000AD00EE021003000FFF741FD09E0210070
:1099A0003000FFF743FD04E021003000FFF75AFDCF
:1099B000FFE770BDF8B505000E0037002800801ED7
:1099C000012812D8787800280ED000207870B97855
:1099D0003800FFF7FAFE0400002C05D0B86B002811
:1099E00002D02000B96B8847FFE7F1BD7CB50400C9
:1099F0000D00607C00281ED0AE1D30886189884231
:109A000019D17089022816D12068002813D016F1C8
:109A10000C0002F00CF8002803D000208DF80000A4
:109A200002E001208DF80000A888ADF80200694628
:109A300020002268904773BD70B505000C00002C13
:109A400001D0002D00D108E026002888502804D13C
:109A500029003000FFF7CAFFFFE770BD2DE9F84F7E
:109A600090B005000E00687C002823D00324002756
:109A70000DF108083A0021004046FEF723F89DF852
:109A8000080010F0F00050F001008DF808009DF87B
:109A9000080010F00F0050F010008DF80800707BE7
:109AA0008DF809009DF80A0010F0F90050F002004E
:109AB0008DF80A001C2400270DF124083A0021002B
:109AC0004046FDF7FFFF9DF8240050F002008DF89E
:109AD0002400687C002801D0012000E000209DF8CF
:109AE000241060F304118DF8241000200A90002047
:109AF0000C9000200D90687C002801D002A800E0A6
:109B000000200E9000200F9001208DF80E0042F6EC
:109B10001920ADF80C0003275FF000086C464246A0
:109B200039002000FDF7CEFFB07B8DF80000F07B00
:109B30008DF801009DF8020010F0F90050F00200CD
:109B40008DF802009DF8020010F0F7008DF8020079
:109B50009DF8020010F0EF008DF802009DF8020061
:109B600010F0FE008DF80200307B8DF805005FF0EC
:109B700014095FF0000A04AC524649462000FDF784
:109B8000A1FF03A80490684605900120ADF81800D5
:109B90000020ADF81A000120ADF81C000DF1050001
:109BA0000890AB1D04AA09A9A888AADF0400002C0C
:109BB00001D020006CE0B068002866D001208DF84C
:109BC0000E0042F60810ADF80C0003275FF0000805
:109BD000E946424639004846FDF774FF307C8DF86F
:109BE00000009DF8010010F0F0008DF801009DF8D4
:109BF000010010F00F008DF801009DF8020010F038
:109C0000F90050F002008DF802009DF8020010F0FB
:109C1000F7008DF802009DF8020010F0EF008DF8BB
:109C200002009DF8020010F0FE008DF80200B168FD
:109C30000DF1060001F003FF8DF804005FF0140938
:109C40005FF0000A0DF1100B524649465846FDF7E9
:109C500039FF03A80490684605909DF80400ADF80C
:109C600018000020ADF81A00BDF81800ADF81C006F
:109C70000DF10600089015F10E0204A9E888ABDF8B
:109C80000400002C03D0200002E00020E881002026
:109C900011B0BDE8F08F7CB504000D00002C01D0A0
:109CA000002D01D10E2018E028682060287960740A
:109CB000FF20207401208DF8020041F60F00ADF85E
:109CC0000000221D69460120A8DF060030000028A0
:109CD00003D129002000FFF7C1FE76BD02000B0072
:109CE0001100180080B2AEDF0028FFD070472DE9C8
:109CF000F34391B005001600002D01D10E2072E053
:109D000000249DF84800297C88426BD008275FF02A
:109D10000008E946424639004846FDF7D3FE0120D7
:109D2000ADF800000020ADF8020012A801906A46CC
:109D3000E9884FF6FF70ACDF0400002C06D19DF8D7
:109D400048002874687C002802D149E020004AE0DD
:109D500010275FF000080DF1080942463900484617
:109D6000FDF7B0FEE888ADF8080001208DF80A0084
:109D7000BDF80200ADF80C0068460490019805900B
:109D8000300080B24FF6FE71884222D106A806F05C
:109D9000A1FE00270698874224D206A800EB4700C0
:109DA000808806F070FE022811D1002C08D106A888
:109DB00000EB4700818802A8FFF790FF040006E04F
:109DC00006A800EB4700818802A8FFF787FF7F1CE9
:109DD000E0E7310089B202A8FFF780FF040001E04C
:109DE00008200400200013B0BDE8F08302000A70D0
:109DF000100080B2000A4870022070478A880284EE
:109E000070474FF6FF720284704738B504000D00AA
:109E10006889022813D12068002810D015F10C00A1
:109E200001F005FE002803D000208DF8000002E0BC
:109E300001208DF80000694620002268904731BD5E
:109E400070B504000D00AE1D3088A189884203D191
:109E500031002000FFF7D9FF70BD70B504000D0080
:109E60002E002088102804D0112807D050280AD0AE
:109E70000EE021003000FFF7C1FF09E021003000B3
:109E8000FFF7BFFF04E021003000FFF7D9FFFFE735
:109E900070BD2DE9F84F04000D00160000275FF09B
:109EA00001096079002801D057F0040794F82200D6
:109EB000002801D057F00207280080B2B0F5807F5B
:109EC0000DDB57F001074846C0B206EB0001280041
:109ED00080B2FFF78BFF804618EB090805E0484683
:109EE000C0B2355419F10109C846B4F84C00002835
:109EF00001D057F010075FF00009B4F84C0081451D
:109F000027DA94F84E004146C9B2891C884211D222
:109F1000B4F84C00B0EB09004000009004EB49009D
:109F200010F1240A14F1240B009A5146584606F009
:109F300079FE0EE04046C0B206EB000104EB49009A
:109F4000808CFFF753FF10EB0800804619F10109E0
:109F5000D3E7B4F84C00B0EB0900A4F84C0037701C
:109F60004046C0B2BDE8F28F2DE9F04FCFB00400FB
:109F70000D00032005900020049001AE049A05997D
:109F80003000FDF79FFD9DF8040010F0F00050F048
:109F900001008DF804009DF8040010F00F0050F04F
:109FA00010008DF80400287B8DF805009DF8060050
:109FB00010F0F90050F002008DF806001C2003900C
:109FC00000260BAF320003993800FDF77BFD9DF8AA
:109FD0002C0050F010008DF82C0000200C90002078
:109FE0000E9000200F9001A81090002011900120E9
:109FF0008DF80A0042F63720ADF8080003275FF01D
:10A000000008E946424639004846FDF75BFD687B9B
:10A010008DF80000A87B8DF801009DF8020010F07B
:10A02000F90050F002008DF802009DF8020010F0D7
:10A03000F7008DF802009DF8020010F0EF008DF897
:10A0400002009DF8020050F001008DF802005FF060
:10A0500014095FF0000A0DF1180B524649465846A4
:10A06000FDF730FD02A806906846079012AA00216D
:10A070002000FFF70EFFADF820000020ADF8220011
:10A08000F420ADF8240012A80A9014F1080306AADF
:10A090000BA9E088AADF4FB0BDE8F08F2DE9F04FA3
:10A0A0008FB004000D001C200290002608AF320083
:10A0B00002993800FDF706FD9DF8200050F00200DF
:10A0C0008DF820000020099000200B9000200C90BB
:10A0D00000200D9000200E9001208DF8060042F621
:10A0E0003820ADF8040003275FF00008E946424637
:10A0F00039004846FDF7E6FCE87B8DF80000287C37
:10A100008DF801009DF8020010F0F90050F00200F7
:10A110008DF802009DF8020010F0F7008DF80200A3
:10A120009DF8020010F0EF008DF802009DF802008B
:10A1300010F0FE008DF802005FF014095FF0000AD5
:10A140000DF10C0B524649465846FDF7BBFC01A8E1
:10A150000390684604900120ADF814000020ADF88B
:10A1600016000120ADF81800A868079014F110033C
:10A1700003AA08A9E088AADF0FB0BDE8F08FF8B500
:10A1800006000F0038683060387970714FF6FF7044
:10A190003084002086F822000020A6F84C00F4202D
:10A1A00086F84E0001208DF8020041F60D00ADF852
:10A1B0000000B21D69460120A8DF0500002D01D076
:10A1C000280015E039003000FFF7CEFE0400002C17
:10A1D00001D020000CE0B868002808D03900300019
:10A1E000FFF75CFF0400002C01D0200000E00020FD
:10A1F000F2BD2DE9F843C2B004000D00208C4FF6EB
:10A20000FF7188422DD005AA290089B22000FFF7EE
:10A2100040FE0600ADF8006010275FF000080DF169
:10A220000409424639004846FDF74CFC2089ADF848
:10A23000040001208DF806000020ADF808006846F3
:10A24000039005A8049001A9208CAEDF002809D155
:10A25000BDF80010320092B2914203D00C210800E8
:10A2600000E0082043B0BDE8F08380F8221070477A
:10A27000028C4B889A4208D10A8840F677239A428A
:10A2800003D18A88D21E80F84E207047010049B25F
:10A2900000290AD4012210F01F018A40DFF8681853
:10A2A00003005BB25B0941F823207047010049B20B
:10A2B00000290ED4012210F01F018A40DFF84C184B
:10A2C00003005BB25B0941F82320BFF34F8FBFF35C
:10A2D0006F8F7047010049B200290AD4012210F0A3
:10A2E0001F018A40DFF8281803005BB25B0941F8C0
:10A2F00023207047010049B200290AD4012210F03E
:10A300001F018A40DFF80C1803005BB25B0941F8BB
:10A310002320704710B4020052B2002A06D44A012A
:10A32000DFF8F437040064B21A5509E04A01DFF897
:10A33000EC37040064B214F00F04234403F8042C37
:10A3400010BC704770B50400002C08D0DFF8D0575F
:10A3500055F00105402606FB04F63000A84770BD05
:10A3600010B50400DFF8BC07046007211120FFF7D7
:10A37000D1FF10BD80B55FF48030DFF8AC17086006
:10A380005FF48030DFF8A41708601120FFF7B2FFF8
:10A390001120FFF77BFF0120DFF8941708602F20C2
:10A3A000FFF7D0FF0120DFF88C17087001BD80B5E2
:10A3B0001120FFF77BFF5FF48030DFF87C17086027
:10A3C0005FF48030DFF8741708600120DFF8701741
:10A3D00008602F20FFF7B6FF0120DFF8681708603C
:10A3E0000020DFF8641708602F20FFF7ABFF002084
:10A3F000DFF84017087001BDDFF8500700687047AC
:10A40000401A20F07F407047DFF84417086070471B
:10A4100010B4DFF840170968002903D1DFF83417BA
:10A42000086031E0DFF82C1709680968026891427A
:10A4300011D3DFF8201709680A680168521ADFF89B
:10A44000141709680A60DFF80C170968C161DFF8A2
:10A450000417086018E00468DFF8F8160B68DFF8E6
:10A46000F4160968002907D00A68A24204D20A68D3
:10A47000A41A0B00C969F5E7002902D00A68121B6B
:10A480000A600460C161D86110BC7047F8B505006E
:10A49000DFF8C0060668DFF8BC0607683C00002C41
:10A4A00004D0AC4202D02700E469F8E7002C01D1C7
:10A4B00000202EE0A7421AD1DFF898060068C06994
:10A4C000DFF890160860DFF88C06006800280ED1CF
:10A4D0000120DFF8701608600020DFF86C160860B5
:10A4E0000120DFF8741608702F20FFF72BFF21687A
:10A4F000E069F861F869002802D002688A180260F1
:10A50000DFF850261268964201D0012000E00020BA
:10A51000C0B2F2BD80B51120FFF7DCFE01BD80B5F1
:10A520001420FFF7D7FE01BD10B50400A0696169D2
:10A53000884710BDF8B5DFF81C060068002840D039
:10A540000026FFF759FFDFF800160968FFF758FFEC
:10A550000700DFF800060468002C11D0206887424D
:10A560000ED320683F1A206886192500E469287CEC
:10A570000028F1D0002028742800FFF7D5FFEBE772
:10A58000DFF8D8050078DFF8D815097888420FD1B0
:10A59000DFF8CC050078401CDFF8C4150870DFF840
:10A5A000C0050078022803D10020DFF8B415087038
:10A5B000DFF8B005DFF8A815097840F82160FFF74B
:10A5C000AEFFF1BD0100DFF894050078DFF89025BB
:10A5D0001278904229D0DFF884050078401CDFF81B
:10A5E0007C251070DFF874050078022803D1002064
:10A5F000DFF868251070DFF86C05DFF86025127849
:10A6000050F822000860DFF84005026808688218E8
:10A61000DFF834050260DFF83005006820F07F4085
:10A62000DFF824251060012002E0002008600020EF
:10A630007047F0B403000024DFF818050068002814
:10A6400023D0DFF8100505682868834203D2286804
:10A65000C01A286019E028681B1A2868041900200D
:10A660002860DFF8F0040668E869DFF8E87438600D
:10A67000E8680028E0D0601820F07F406860E86853
:10A68000A8601068E8611660D6E7F0BC70472DE955
:10A69000F04104000025DFF8BC040668002C08D156
:10A6A000DFF8C4040078DFF8C0144978884200F06D
:10A6B0009280002C03D02700F86904005BE0DFF8EB
:10A6C000A814DFF8A40402781820424301EB02002A
:10A6D00010F10408DFF890040078401CDFF88814BB
:10A6E0000870DFF884040078DFF87C1489788842E9
:10A6F00003D10020DFF870140870D8F8047098F8BF
:10A70000000001281ED021D303280BD01ED2D8F878
:10A710000400FFF7BBFE002801D001200500002047
:10A720003874BBE7DFF82C040068002809D0DFF894
:10A730002404006800210174C069DFF8181408605F
:10A74000F0E7ABE7387C002801D101E0A6E7A5E7F8
:10A75000D8F808007860D8F80C00B860D8F8100075
:10A76000F860D8F81400B861DFF8EC03007800282E
:10A7700001D0002078607968DFF8CC030068091AFE
:10A7800021F07F41DFF8E403814209D2DFF8B8030A
:10A7900001687868FFF734FEB968081838600EE081
:10A7A0007968DFF8A4030068FFF72AFEB9688842D9
:10A7B00003D2B968081A386001E00021396000202E
:10A7C00078600020B860012038740020F8613800FB
:10A7D000FFF71EFE62E7EDB2002D04D1DFF874032F
:10A7E0000068B04201D0012000E00020C0B2BDE806
:10A7F000F0812DE9F0470400DFF8580300680028D5
:10A800003CD0DFF8500300680568FFF7F5FD06004F
:10A81000DFF83403D0F8008041463000FFF7F0FD48
:10A820000700FF1CDFF80C030078002801D1FFF7B8
:10A83000A1FDAF4201D2280000E0380010EB08086B
:10A8400028F07F484046FFF7DFFDFFF7D5FD814642
:10A8500031004046FFF7D4FD824631004846FFF7FD
:10A86000CFFDC01C82450BD2FFF7C6FDFFF7CCFD24
:10A870002F20FFF767FDFFF74DFE01E0FFF797FD83
:10A88000BDE8F087FEB5002000900024AE480568C2
:10A89000B048066801A8FFF795FE07003800C0B26F
:10A8A000002806D06A4629000198FFF7C2FE012061
:10A8B00004000098FFF7EBFE002801D001200400FF
:10A8C0002000C0B2002802D03000FFF792FF002025
:10A8D000A1490870F7BDA4494870704710B4010041
:10A8E000A1484278521C10009F4B9B78C0B29842FE
:10A8F00001D10020020010009B4B1B78C0B298428F
:10A9000001D1002008E00A70974B9748447818203E
:10A91000444303EB0400001D10BC70472DE9F843CD
:10A9200006000F0090469946002400208DF8000094
:10A93000684606F01BFA0DF10100FFF7CFFF050096
:10A94000002D02D1042004000EE0012028706E606A
:10A95000FFF752FDA860EF60C5F81080C5F81490AD
:10A960009DF80100FFF7B7FF9DF8000006F004FA1C
:10A97000002C01D1FFF7D3FD2000BDE8F283F8B52C
:10A9800006000F00002500208DF80000684606F044
:10A99000EDF90DF10100FFF7A1FF0400002C02D139
:10A9A0000420050005E0277066609DF80100FFF7B0
:10A9B00092FF9DF8000006F0DFF9002D01D1FFF7AE
:10A9C000AEFD2800F2BD80B5002069490860002076
:10A9D00068490860002068490860002067490860ED
:10A9E000002067490860002066490860FFF7A2FD63
:10A9F00001BD80B5FFF746FF01BD80B5FFF7D7FC6D
:10AA00000020594908700020574948700B205649CA
:10AA1000887000204F4908600020504908700020CD
:10AA20004F4908701420FFF765FC07211420FFF739
:10AA300071FC1420FFF72AFC0020FFF791FCFFF7C0
:10AA4000DBFC41490860002002BD10B40300464809
:10AA50008078002801D1082014E01000002801D1DE
:10AA600007200FE0002B01D107200BE01868007CC5
:10AA7000002801D0082005E01C68002020746174C3
:10AA80006261002010BC70472DE9F04104000D0008
:10AA90001600270034488078002801D1082019E0EA
:10AAA000002C01D1082015E0052D01D2072011E06E
:10AAB0007869002801D108200CE0787C012801D1B8
:10AAC000A84601E05FF00008330042462900380044
:10AAD000FFF724FFBDE8F08138B5040025002248C7
:10AAE0008078002801D108200CE0002C02D0686991
:10AAF000002801D1082005E0002028740221280048
:10AB0000FFF73DFF32BD000000E100E080E100E022
:10AB100000E200E080E200E000E400E018ED00E088
:10AB2000805D0300081501404413014004130140F7
:10AB3000001001401888002048130140081301400C
:10AB400004100140081001409487002004150140C2
:10AB500040150140908700201988002016880020A9
:10AB600017880020F0860020C47D0020FFFF7F00B2
:10AB70004011014044110140481101404C11014075
:10AB80000011014004110140F7210180172141808B
:10AB90000021017100214171FB2181711B21C171D3
:10ABA0007047D8B484B003000C008D48D0E900672A
:10ABB000CDE90267ADF80840ADF80A408948D0E910
:10ABC0000067CDE900676A4602A9180080B290DFED
:10ABD00000280AD0BDF80010002903D1BDF80210EA
:10ABE0000029FFD0BDF80410002905B0D0BC704783
:10ABF0002DE9F04105000E00B788380080B205EB62
:10AC0000C00010F10608287988F80600F07B0128BA
:10AC100002D0022804D007E02888A8F8000003E04A
:10AC20006888A8F80000FFE7B8F80200B8F800103C
:10AC3000884211D2B8F80010380080B2A5DF0400B5
:10AC4000002C03D1012088F8050005E0112C03D168
:10AC5000012088F80400FFE798F8070098F806102C
:10AC6000884206D298F8061089B2380080B2FFF701
:10AC700098FFBDE8F08138B504000D00A88804EB0A
:10AC8000C000801DFFF780FF31BD2DE9FC410400AD
:10AC90000D00AE886F89300080B204EBC00010F167
:10ACA00006083800B8F8001080B2884201D2380097
:10ACB00001E0B8F80000A8F80200B8F80200172870
:10ACC00001DA172001E0B8F80200A8F802002069B4
:10ACD000002812D098F8050000280ED0424AD2E988
:10ACE0000001CDE90001ADF80260B8F80200ADF84E
:10ACF00004006946200022699047002088F805007A
:10AD0000002088F80400BDE8F3812DE9FE4305002A
:10AD10000E00B788B6F80690380080B205EBC00088
:10AD200010F10608484680B2172802DA5FF01709CA
:10AD3000FFE74846B8F8001080B2884201D2484682
:10AD400001E0B8F80000A8F80200002088F804002C
:10AD5000B8F80010380080B2B5DF0400002C98F875
:10AD60000500002811D1286900280ED01F4AD2E919
:10AD70000001CDE90001ADF80270B8F80200ADF8AD
:10AD80000400694628002A699047BDE8F78378B532
:10AD90008DB004000D0002A8291D2C22FDF7A0FF94
:10ADA000BDF80860BDF80C00310089B204EBC101A8
:10ADB00048732069002811D00D48D0E90023CDE95F
:10ADC0000023ADF80260300080B204EBC000407B8D
:10ADD0008DF8040069462000226990470EB070BDCE
:10ADE000B85D0300B05D0300C05D0300C85D0300F3
:10ADF000D05D03002DE9F84304000D002E1D3088BE
:10AE000004EBC000871DB6F80480B8794146C9B28A
:10AE1000884202D297F8069000E0C1464946C9B27E
:10AE200089B23088FFF7BDFEBDE8F18370B505003B
:10AE30000E00002D01D10E2011E02E61F720288098
:10AE4000F7206880FB2028710024002C06D105EB38
:10AE5000C400801DFFF798FE641CF6E7002070BD5B
:10AE60000200002A01D10E200BE0080080B2172852
:10AE700003DB080080B2F82801DB072001E0118025
:10AE800000207047F8B504000D002E00A788380098
:10AE900080B200284AD1208810280AD011280DD06D
:10AEA00023281FD0242818D03A280CD055280FD09A
:10AEB0001DE021003000FFF79BFE18E0210030006C
:10AEC000FFF7D9FE13E021003000FFF7DEFE0EE0B1
:10AED00021003000FFF719FF09E021003000FFF7E3
:10AEE00056FF04E021003000FFF784FFFFE7380041
:10AEF00080B206EBC000807A002817D0380080B2FC
:10AF000006EBC000C188380080B2A5DF00280CD154
:10AF100000213A0092B206EBC202917201213A007E
:10AF200092B206EBC202D17200E01128F1BDFEE739
:10AF300001005FF0A04070472DE9F14181B00E00A3
:10AF400017009846089C099D01A8FFF7F1FF310002
:10AF5000C9B23A00D2B251EA42014246D2B251EAF3
:10AF600082012200D2B251EA02212A00D2B251EA71
:10AF70000241019A00EB8202C2F80017BDE8F3819A
:10AF80001CB5040000200190002000900023012245
:10AF900001212000FFF7D0FF13BD3EB504000D00D6
:10AFA00000200190002000902B00DBB20022002145
:10AFB0002000FFF7C1FF37BD11B581B001A8FFF731
:10AFC000B7FF0400012101988140200000F02CF817
:10AFD00013BD11B581B001A8FFF7AAFF040001213C
:10AFE00001988140200000F022F813BD38B505001B
:10AFF0000C00002C03D12800FFF7EBFF02E0280033
:10B00000FFF7DAFF31BD11B581B001A8FFF790FF5E
:10B010000400200000F005F80199C84010F001007C
:10B0200016BDD0F810057047C0F808157047C0F875
:10B030000C15704710B504001620FFF7A1FF200083
:10B04000C0B2012804D101211620FFF7CFFF07E08D
:10B050002000C0B2002803D100211620FFF7C6FF50
:10B0600010BD80B503211620FFF797FF01BD10B575
:10B0700004001720FFF784FF2000C0B2012804D18C
:10B0800001211720FFF7B2FF07E02000C0B200281F
:10B0900003D100211720FFF7A9FF10BD80B50120C3
:10B0A000FFF7C8FF0120FFF7E2FF00BF00BF00204D
:10B0B000FFF7C0FF00BF00BF0020FFF7D8FF01BDB2
:10B0C00080B50020FFF7B6FF0020FFF7D0FF00BFDC
:10B0D00000BF0120FFF7CBFF00BF00BF0120FFF73B
:10B0E000A9FF01BD80B50120FFF7A4FF00BF00BF8D
:10B0F0000120FFF7BCFF00BF00BF0020FFF7B7FF34
:10B1000001BD10B500240120FFF794FF00BF00BF70
:10B110000120FFF7ACFF00BF00BFFFF7A2FF162022
:10B12000FFF771FF002804D0641C2000C0B214286F
:10B13000F5D10020FFF79BFF00BF00BF10BD38B561
:10B14000040000252800C0B2082813DA200603D521
:10B150000120FFF76FFF02E00020FFF76BFF6400A4
:10B160000120FFF784FF00BF00BF0020FFF77FFF33
:10B170006D1CE7E7FFF7C5FF31BD70B50120FFF794
:10B1800059FF00252800C0B2082812DA0120FFF775
:10B190006EFF76003400FFF764FF1620FFF733FFE1
:10B1A000060026430020FFF762FF00BF00BF6D1CB2
:10B1B000E8E73000C0B270BD38B504000D00FFF7FD
:10B1C0006DFFA220FFF7BBFF2000C0B2FFF7B7FF63
:10B1D0002800C0B2FFF7B3FFFFF772FF31BD38B5EB
:10B1E0000400FFF75BFFA220FFF7A9FF2000C0B219
:10B1F000FFF7A5FFFFF752FFA320FFF7A0FFFFF720
:10B20000BCFF0500FFF76EFFFFF75AFF2800C0B232
:10B2100032BD0200D2B2C0B20009C0B2062101FBA9
:10B220001020C0B270470100C9B20A2291FBF2F2AD
:10B2300006214A4352FA80F0C0B2704700B58BB085
:10B240000220FFF7CCFF10F07F00FFF7E2FF009035
:10B250000320FFF7C4FF10F07F00FFF7DAFF019033
:10B260000420FFF7BCFF10F03F00FFF7D2FF029071
:10B270000520FFF7B4FF10F03F00FFF7CAFF03906F
:10B280000720FFF7ACFF10F01F00FFF7C2FF04908C
:10B290000820FFF7A4FFC0B2FFF7BBFF0590684688
:10B2A00005F072FD0BB000BD11B581B001A805F02D
:10B2B000D1FD040020210020FFF77EFF2068C0B2EE
:10B2C000FFF7B1FF0100C9B20220FFF775FF606808
:10B2D000C0B2FFF7A8FF0100C9B20320FFF76CFF5F
:10B2E000A068C0B2FFF79FFF0100C9B20420FFF7BA
:10B2F00063FFE068C0B2FFF796FF0100C9B2052006
:10B30000FFF75AFF2069C0B2FFF78DFF0100C9B2F5
:10B310000720FFF751FF6069C0B2FFF784FF01000B
:10B32000C9B20820FFF748FF00210020FFF744FFC3
:10B3300013BD10B5040020210020FFF73DFF2000C1
:10B34000FFF7B2FF00210020FFF736FF10BDFEE738
:10B350002DE9F8438AB006000F00002000906A46ED
:10B36000B988706905F083FD0500002D5FF00808BD
:10B370005FF0000902AC4A4641462000FCF7A2FB00
:10B3800001A803900220ADF808000020ADF80A00E3
:10B3900002AA318AB888ADDF0400002C23D1B0693D
:10B3A000002820D0039800F042FB00281BD0009812
:10B3B000002802D001200099087018255FF00008CD
:10B3C0000DF11009424629004846FCF77BFB02209C
:10B3D0008DF810000596B888ADF818000098079011
:10B3E00004A8B16988470BB0BDE8F0832DE9F847A0
:10B3F00087B005000E00B71D6A46B188686905F080
:10B4000036FD0400002C5FF018085FF000090DF114
:10B41000040A4A4641465046FCF754FB0295B08860
:10B42000ADF80C00009804903888298988421FD113
:10B43000788902281CD1009800282CD017F10C0024
:10B4400000F0F5FA002806D00120009908700220CB
:10B450008DF8040005E000200099087003208DF8A5
:10B460000400A869002816D001A8A969884712E03D
:10B470003888A98988420ED1A86900280BD00020FD
:10B480008DF8040017F10C0005907889ADF81800CC
:10B4900001A8A969884708B0BDE8F0872DE9F04305
:10B4A00087B005000E006A46B188686905F0DFFCC8
:10B4B0000400002C19D100980078002815D0182716
:10B4C0005FF000080DF10409424639004846FCF7D8
:10B4D000F9FA01208DF804000295B088ADF80C004F
:10B4E0000098049001A8A969884707B0BDE8F083D7
:10B4F0002DE9F34F91B00400032004900020039045
:10B5000001AD039A04992800FCF7DCFA9DF80400C9
:10B5100010F0F00050F001008DF804009DF80400D8
:10B5200010F00F0050F010008DF804009DF8050099
:10B5300010F0F00050F001008DF805009DF80500B6
:10B5400010F00F0050F010008DF805009DF8060077
:10B5500010F0F90050F002008DF806001C250026BE
:10B560000AAF320029003800FCF7ACFA9DF8280039
:10B5700050F010008DF8280000200B9000200D9056
:10B5800000200E9001A80F900020109020788DF8D8
:10B590000A000320ADF8080003275FF00008E94621
:10B5A000424639004846FCF78DFA9DF8000010F03D
:10B5B000F00050F001008DF800009DF8000010F040
:10B5C0000F0050F010008DF800009DF8010010F001
:10B5D000F00050F001008DF801009DF8010010F01E
:10B5E0000F0050F010008DF801009DF8020010F0DF
:10B5F000F90050F002008DF802009DF8020010F0F2
:10B60000F7008DF802009DF8020010F0EF008DF8B1
:10B6100002009DF8020050F001008DF802005FF07A
:10B6200014095FF0000A0DF1140B524649465846C2
:10B63000FCF748FA02A80590684606900120ADF88C
:10B640001C000020ADF81E00F420ADF82000231DE2
:10B6500005AA0AA96088AADF13B0BDE8F08F2DE91A
:10B66000F24F8EB004001C25002607AF32002900DF
:10B670003800FCF727FA9DF81C0050F008008DF800
:10B680001C009DF81C0050F004008DF81C000020E8
:10B69000089000200A9000200B9000200C900020C1
:10B6A0000D9020788DF806000220ADF804000327E5
:10B6B0005FF00008E946424639004846FCF702FAC6
:10B6C0009DF8000010F0F00050F001008DF800002F
:10B6D0009DF8000010F00F0050F010008DF80000F1
:10B6E0009DF8010010F0F00050F001008DF801000D
:10B6F0009DF8010010F00F0050F010008DF80100CF
:10B700009DF8020010F0F90050F002008DF80200E0
:10B710009DF8020010F0F7008DF802009DF802007D
:10B7200010F0EF008DF802009DF8020050F00100CB
:10B730008DF802005FF014095FF0000A0DF1080BAC
:10B74000524649465846FCF7BDF901A802906846A2
:10B7500003900120ADF810000020ADF81200F42095
:10B76000ADF8140014F10C0302AA07A96088AADF3F
:10B770000FB0BDE8F08F70B505000C00002C01D0B3
:10B78000002D00D117E026002888102804D050286A
:10B7900007D057280AD00EE029003000FFF7D8FD67
:10B7A00009E029003000FFF721FE04E02900300005
:10B7B000FFF774FEFFE770BDF0B585B004000D0023
:10B7C00001A81B491022FDF78BFA002C01D10E2095
:10B7D0002BE0002D01D10E2027E02868A061210078
:10B7E00001A862DF0300180000281ED120788DF820
:10B7F00002000120ADF80000A21C69460120A8DF6C
:10B8000006003000002810D129002000FFF727FF94
:10B8100007003800002808D129002000FFF768FE43
:10B8200001000800002800D1002005B0F0BD000094
:10B83000085C03002DE9F04F85B004000D001600F0
:10B840001F00002C01D10E2036E06A46390089B273
:10B85000606905F00CFB8046404600282CD138007A
:10B8600080B24FF6FF71884202D00098002801D1C3
:10B87000052021E000980078002801D108201BE075
:10B880003088F52801DB072016E05FF010095FF033
:10B89000000A0DF1040B524649465846FCF712F9CE
:10B8A000A088ADF804000495039601208DF80600E9
:10B8B00001A9380080B2AEDF05B0BDE8F08F02000C
:10B8C000002A01D10E2010E0002901D10E200CE049
:10B8D0001078DE2801D1082007E008685060DE20DB
:10B8E00010704FF6FF705080002070470200002A51
:10B8F00001D10E2006E01078DE2801D0082001E0FA
:10B9000051800020704738B50500287A002810D0F3
:10B910000021688866DF0400002C02D10020287214
:10B9200007E0112C02D10120287202E02000696892
:10B93000884731BD38B504000D002879012808D1A9
:10B9400028886188884204D1012020722000FFF7F6
:10B95000DAFF31BD7047F8B584B005000E003088BD
:10B960006988884226D1B71C3878022822D1387AD3
:10B97000042805D0387A062802D0387A052819D14B
:10B9800068461021FCF7D2F802208DF800004FF431
:10B99000C070ADF80400387A052802D10020ADF857
:10B9A000040069463088B0DF0400002C02D020007B
:10B9B0006968884705B0F0BD70B504000D00002D22
:10B9C0002DD0002C2BD02E003078DE2827D1A08857
:10B9D0007188884202D13000FFF795FF2088012846
:10B9E00006D0022809D0112811D051280AD016E01B
:10B9F000211D3000FFF79EFF11E0211D3000FFF7F1
:10BA0000A9FF0CE0211D3000FFF7A5FF07E0A0888B
:10BA10007188884202D14FF6FF707080FFE770BDD9
:10BA200001000878497850EA012080B2704710B5CB
:10BA300004002000FFF7F4FF10F0010010BDF8B57E
:10BA400005000E00002730783900C9B268547F1C09
:10BA500070783900C9B268547F1C3800C0B202281F
:10BA600001D1012400E00024E4B2002C02D1002026
:10BA7000FDF768FC3800C0B2F2BD38B504000D0017
:10BA8000280005F02DFA2080656031BD02000A70A3
:10BA9000100080B2000A48700220704770B50400A0
:10BAA0000D00002D01D0012600E00026F6B2002E88
:10BAB00002D10020FDF746FC002C01D0012600E059
:10BAC0000026F6B2002E02D10020FDF73BFCD5E99E
:10BAD00000012070D5E9000180B2000A6070D5E94C
